{
  "_format": "hh3-artifact-1",
  "contractName": "GovernanceContract",
  "sourceName": "contracts/GovernanceContract.sol",
  "abi": [
    {
      "inputs": [
        {
          "internalType": "address",
          "name": "_governanceToken",
          "type": "address"
        }
      ],
      "stateMutability": "nonpayable",
      "type": "constructor"
    },
    {
      "inputs": [],
      "name": "AccessControlBadConfirmation",
      "type": "error"
    },
    {
      "inputs": [
        {
          "internalType": "address",
          "name": "account",
          "type": "address"
        },
        {
          "internalType": "bytes32",
          "name": "neededRole",
          "type": "bytes32"
        }
      ],
      "name": "AccessControlUnauthorizedAccount",
      "type": "error"
    },
    {
      "inputs": [],
      "name": "ReentrancyGuardReentrantCall",
      "type": "error"
    },
    {
      "anonymous": false,
      "inputs": [
        {
          "indexed": true,
          "internalType": "uint256",
          "name": "proposalId",
          "type": "uint256"
        }
      ],
      "name": "ProposalCanceled",
      "type": "event"
    },
    {
      "anonymous": false,
      "inputs": [
        {
          "indexed": true,
          "internalType": "uint256",
          "name": "proposalId",
          "type": "uint256"
        },
        {
          "indexed": true,
          "internalType": "address",
          "name": "proposer",
          "type": "address"
        },
        {
          "indexed": false,
          "internalType": "string",
          "name": "description",
          "type": "string"
        },
        {
          "indexed": false,
          "internalType": "enum GovernanceContract.ProposalType",
          "name": "proposalType",
          "type": "uint8"
        }
      ],
      "name": "ProposalCreated",
      "type": "event"
    },
    {
      "anonymous": false,
      "inputs": [
        {
          "indexed": true,
          "internalType": "uint256",
          "name": "proposalId",
          "type": "uint256"
        }
      ],
      "name": "ProposalExecuted",
      "type": "event"
    },
    {
      "anonymous": false,
      "inputs": [
        {
          "indexed": true,
          "internalType": "bytes32",
          "name": "role",
          "type": "bytes32"
        },
        {
          "indexed": true,
          "internalType": "bytes32",
          "name": "previousAdminRole",
          "type": "bytes32"
        },
        {
          "indexed": true,
          "internalType": "bytes32",
          "name": "newAdminRole",
          "type": "bytes32"
        }
      ],
      "name": "RoleAdminChanged",
      "type": "event"
    },
    {
      "anonymous": false,
      "inputs": [
        {
          "indexed": true,
          "internalType": "bytes32",
          "name": "role",
          "type": "bytes32"
        },
        {
          "indexed": true,
          "internalType": "address",
          "name": "account",
          "type": "address"
        },
        {
          "indexed": true,
          "internalType": "address",
          "name": "sender",
          "type": "address"
        }
      ],
      "name": "RoleGranted",
      "type": "event"
    },
    {
      "anonymous": false,
      "inputs": [
        {
          "indexed": true,
          "internalType": "bytes32",
          "name": "role",
          "type": "bytes32"
        },
        {
          "indexed": true,
          "internalType": "address",
          "name": "account",
          "type": "address"
        },
        {
          "indexed": true,
          "internalType": "address",
          "name": "sender",
          "type": "address"
        }
      ],
      "name": "RoleRevoked",
      "type": "event"
    },
    {
      "anonymous": false,
      "inputs": [
        {
          "indexed": true,
          "internalType": "uint256",
          "name": "proposalId",
          "type": "uint256"
        },
        {
          "indexed": true,
          "internalType": "address",
          "name": "voter",
          "type": "address"
        },
        {
          "indexed": false,
          "internalType": "bool",
          "name": "support",
          "type": "bool"
        },
        {
          "indexed": false,
          "internalType": "uint256",
          "name": "weight",
          "type": "uint256"
        }
      ],
      "name": "VoteCast",
      "type": "event"
    },
    {
      "inputs": [],
      "name": "ADMIN_ROLE",
      "outputs": [
        {
          "internalType": "bytes32",
          "name": "",
          "type": "bytes32"
        }
      ],
      "stateMutability": "view",
      "type": "function"
    },
    {
      "inputs": [],
      "name": "DEFAULT_ADMIN_ROLE",
      "outputs": [
        {
          "internalType": "bytes32",
          "name": "",
          "type": "bytes32"
        }
      ],
      "stateMutability": "view",
      "type": "function"
    },
    {
      "inputs": [],
      "name": "EXECUTOR_ROLE",
      "outputs": [
        {
          "internalType": "bytes32",
          "name": "",
          "type": "bytes32"
        }
      ],
      "stateMutability": "view",
      "type": "function"
    },
    {
      "inputs": [
        {
          "internalType": "uint256",
          "name": "proposalId",
          "type": "uint256"
        }
      ],
      "name": "cancel",
      "outputs": [],
      "stateMutability": "nonpayable",
      "type": "function"
    },
    {
      "inputs": [
        {
          "internalType": "uint256",
          "name": "proposalId",
          "type": "uint256"
        },
        {
          "internalType": "bool",
          "name": "support",
          "type": "bool"
        }
      ],
      "name": "castVote",
      "outputs": [],
      "stateMutability": "nonpayable",
      "type": "function"
    },
    {
      "inputs": [
        {
          "internalType": "uint256",
          "name": "proposalId",
          "type": "uint256"
        }
      ],
      "name": "execute",
      "outputs": [],
      "stateMutability": "nonpayable",
      "type": "function"
    },
    {
      "inputs": [
        {
          "internalType": "uint256",
          "name": "proposalId",
          "type": "uint256"
        }
      ],
      "name": "getProposal",
      "outputs": [
        {
          "internalType": "string",
          "name": "description",
          "type": "string"
        },
        {
          "internalType": "address",
          "name": "proposer",
          "type": "address"
        },
        {
          "internalType": "uint256",
          "name": "forVotes",
          "type": "uint256"
        },
        {
          "internalType": "uint256",
          "name": "againstVotes",
          "type": "uint256"
        },
        {
          "internalType": "uint256",
          "name": "startTime",
          "type": "uint256"
        },
        {
          "internalType": "uint256",
          "name": "endTime",
          "type": "uint256"
        },
        {
          "internalType": "bool",
          "name": "executed",
          "type": "bool"
        },
        {
          "internalType": "bool",
          "name": "canceled",
          "type": "bool"
        }
      ],
      "stateMutability": "view",
      "type": "function"
    },
    {
      "inputs": [
        {
          "internalType": "bytes32",
          "name": "role",
          "type": "bytes32"
        }
      ],
      "name": "getRoleAdmin",
      "outputs": [
        {
          "internalType": "bytes32",
          "name": "",
          "type": "bytes32"
        }
      ],
      "stateMutability": "view",
      "type": "function"
    },
    {
      "inputs": [
        {
          "internalType": "uint256",
          "name": "proposalId",
          "type": "uint256"
        }
      ],
      "name": "getVotingStatus",
      "outputs": [
        {
          "internalType": "bool",
          "name": "isActive",
          "type": "bool"
        },
        {
          "internalType": "bool",
          "name": "hasEnded",
          "type": "bool"
        },
        {
          "internalType": "bool",
          "name": "isSuccessful",
          "type": "bool"
        }
      ],
      "stateMutability": "view",
      "type": "function"
    },
    {
      "inputs": [],
      "name": "governanceToken",
      "outputs": [
        {
          "internalType": "contract IERC20",
          "name": "",
          "type": "address"
        }
      ],
      "stateMutability": "view",
      "type": "function"
    },
    {
      "inputs": [
        {
          "internalType": "bytes32",
          "name": "role",
          "type": "bytes32"
        },
        {
          "internalType": "address",
          "name": "account",
          "type": "address"
        }
      ],
      "name": "grantRole",
      "outputs": [],
      "stateMutability": "nonpayable",
      "type": "function"
    },
    {
      "inputs": [
        {
          "internalType": "bytes32",
          "name": "role",
          "type": "bytes32"
        },
        {
          "internalType": "address",
          "name": "account",
          "type": "address"
        }
      ],
      "name": "hasRole",
      "outputs": [
        {
          "internalType": "bool",
          "name": "",
          "type": "bool"
        }
      ],
      "stateMutability": "view",
      "type": "function"
    },
    {
      "inputs": [
        {
          "internalType": "uint256",
          "name": "",
          "type": "uint256"
        },
        {
          "internalType": "address",
          "name": "",
          "type": "address"
        }
      ],
      "name": "hasVoted",
      "outputs": [
        {
          "internalType": "bool",
          "name": "",
          "type": "bool"
        }
      ],
      "stateMutability": "view",
      "type": "function"
    },
    {
      "inputs": [
        {
          "internalType": "uint256",
          "name": "proposalId",
          "type": "uint256"
        }
      ],
      "name": "isProposalSuccessful",
      "outputs": [
        {
          "internalType": "bool",
          "name": "",
          "type": "bool"
        }
      ],
      "stateMutability": "view",
      "type": "function"
    },
    {
      "inputs": [],
      "name": "oracleContract",
      "outputs": [
        {
          "internalType": "address",
          "name": "",
          "type": "address"
        }
      ],
      "stateMutability": "view",
      "type": "function"
    },
    {
      "inputs": [],
      "name": "proposalCount",
      "outputs": [
        {
          "internalType": "uint256",
          "name": "",
          "type": "uint256"
        }
      ],
      "stateMutability": "view",
      "type": "function"
    },
    {
      "inputs": [],
      "name": "proposalThreshold",
      "outputs": [
        {
          "internalType": "uint256",
          "name": "",
          "type": "uint256"
        }
      ],
      "stateMutability": "view",
      "type": "function"
    },
    {
      "inputs": [
        {
          "internalType": "uint256",
          "name": "",
          "type": "uint256"
        }
      ],
      "name": "proposals",
      "outputs": [
        {
          "internalType": "string",
          "name": "description",
          "type": "string"
        },
        {
          "internalType": "address",
          "name": "proposer",
          "type": "address"
        },
        {
          "internalType": "uint256",
          "name": "forVotes",
          "type": "uint256"
        },
        {
          "internalType": "uint256",
          "name": "againstVotes",
          "type": "uint256"
        },
        {
          "internalType": "uint256",
          "name": "startTime",
          "type": "uint256"
        },
        {
          "internalType": "uint256",
          "name": "endTime",
          "type": "uint256"
        },
        {
          "internalType": "bool",
          "name": "executed",
          "type": "bool"
        },
        {
          "internalType": "bool",
          "name": "canceled",
          "type": "bool"
        },
        {
          "internalType": "enum GovernanceContract.ProposalType",
          "name": "proposalType",
          "type": "uint8"
        },
        {
          "internalType": "bytes",
          "name": "callData",
          "type": "bytes"
        },
        {
          "internalType": "address",
          "name": "target",
          "type": "address"
        }
      ],
      "stateMutability": "view",
      "type": "function"
    },
    {
      "inputs": [
        {
          "internalType": "string",
          "name": "description",
          "type": "string"
        },
        {
          "internalType": "enum GovernanceContract.ProposalType",
          "name": "proposalType",
          "type": "uint8"
        },
        {
          "internalType": "address",
          "name": "target",
          "type": "address"
        },
        {
          "internalType": "bytes",
          "name": "callData",
          "type": "bytes"
        }
      ],
      "name": "propose",
      "outputs": [
        {
          "internalType": "uint256",
          "name": "",
          "type": "uint256"
        }
      ],
      "stateMutability": "nonpayable",
      "type": "function"
    },
    {
      "inputs": [],
      "name": "quorumPercentage",
      "outputs": [
        {
          "internalType": "uint256",
          "name": "",
          "type": "uint256"
        }
      ],
      "stateMutability": "view",
      "type": "function"
    },
    {
      "inputs": [
        {
          "internalType": "bytes32",
          "name": "role",
          "type": "bytes32"
        },
        {
          "internalType": "address",
          "name": "callerConfirmation",
          "type": "address"
        }
      ],
      "name": "renounceRole",
      "outputs": [],
      "stateMutability": "nonpayable",
      "type": "function"
    },
    {
      "inputs": [
        {
          "internalType": "bytes32",
          "name": "role",
          "type": "bytes32"
        },
        {
          "internalType": "address",
          "name": "account",
          "type": "address"
        }
      ],
      "name": "revokeRole",
      "outputs": [],
      "stateMutability": "nonpayable",
      "type": "function"
    },
    {
      "inputs": [
        {
          "internalType": "address",
          "name": "_oracleContract",
          "type": "address"
        },
        {
          "internalType": "address",
          "name": "_votingContract",
          "type": "address"
        }
      ],
      "name": "setContracts",
      "outputs": [],
      "stateMutability": "nonpayable",
      "type": "function"
    },
    {
      "inputs": [
        {
          "internalType": "bytes4",
          "name": "interfaceId",
          "type": "bytes4"
        }
      ],
      "name": "supportsInterface",
      "outputs": [
        {
          "internalType": "bool",
          "name": "",
          "type": "bool"
        }
      ],
      "stateMutability": "view",
      "type": "function"
    },
    {
      "inputs": [
        {
          "internalType": "uint256",
          "name": "_votingDelay",
          "type": "uint256"
        },
        {
          "internalType": "uint256",
          "name": "_votingPeriod",
          "type": "uint256"
        },
        {
          "internalType": "uint256",
          "name": "_proposalThreshold",
          "type": "uint256"
        },
        {
          "internalType": "uint256",
          "name": "_quorumPercentage",
          "type": "uint256"
        }
      ],
      "name": "updateParameters",
      "outputs": [],
      "stateMutability": "nonpayable",
      "type": "function"
    },
    {
      "inputs": [],
      "name": "votingContract",
      "outputs": [
        {
          "internalType": "address",
          "name": "",
          "type": "address"
        }
      ],
      "stateMutability": "view",
      "type": "function"
    },
    {
      "inputs": [],
      "name": "votingDelay",
      "outputs": [
        {
          "internalType": "uint256",
          "name": "",
          "type": "uint256"
        }
      ],
      "stateMutability": "view",
      "type": "function"
    },
    {
      "inputs": [],
      "name": "votingPeriod",
      "outputs": [
        {
          "internalType": "uint256",
          "name": "",
          "type": "uint256"
        }
      ],
      "stateMutability": "view",
      "type": "function"
    },
    {
      "inputs": [
        {
          "internalType": "address",
          "name": "",
          "type": "address"
        }
      ],
      "name": "votingPower",
      "outputs": [
        {
          "internalType": "uint256",
          "name": "",
          "type": "uint256"
        }
      ],
      "stateMutability": "view",
      "type": "function"
    }
  ],
  "bytecode": "0x60806040526201518060025562093a8060035568056bc75e2d63100000600455600460055534801562000030575f80fd5b5060405162001d3f38038062001d3f8339810160408190526200005391620001e7565b600180556001600160a01b038116620000b25760405162461bcd60e51b815260206004820152601560248201527f496e76616c696420746f6b656e20616464726573730000000000000000000000604482015260640160405180910390fd5b600680546001600160a01b0319166001600160a01b038316179055620000d95f336200013b565b50620001067fa49807205ce4d355092ef5a8a18f56e8913cf4a201fbe287825b095693c21775336200013b565b50620001337fd8aa0f3194971a2a116679f7c2090f6939c8d4e01a2a8d7e41d55e5351469e63336200013b565b505062000216565b5f828152602081815260408083206001600160a01b038516845290915281205460ff16620001de575f838152602081815260408083206001600160a01b03861684529091529020805460ff19166001179055620001953390565b6001600160a01b0316826001600160a01b0316847f2f8788117e7eff1d82e926ec794901d17c78024a50270940304540a733656f0d60405160405180910390a4506001620001e1565b505f5b92915050565b5f60208284031215620001f8575f80fd5b81516001600160a01b03811681146200020f575f80fd5b9392505050565b611b1b80620002245f395ff3fe608060405234801561000f575f80fd5b50600436106101c6575f3560e01c80638f633994116100fe578063c1fc006a1161009e578063da35c6641161006e578063da35c66414610459578063ee1eab4f14610462578063f96dae0a14610475578063fe0d94c114610488575f80fd5b8063c1fc006a146103f9578063c7f758a81461040c578063d547741f14610433578063d8952a4914610446575f80fd5b8063aa93e59b116100d9578063aa93e59b14610393578063b58131b0146103a6578063bece7532146103af578063c07473f6146103da575f80fd5b80638f6339941461034757806391d1485414610379578063a217fddf1461038c575f80fd5b806336568abe11610169578063438596321161014457806343859632146102d75780634fa76ec91461030457806375b238fc1461030d5780637b29116a14610334575f80fd5b806336568abe146102a85780633932abb1146102bb57806340e58ee5146102c4575f80fd5b806307bd0265116101a457806307bd02651461023757806315373e3d1461025e578063248a9ca3146102735780632f2ff15d14610295575f80fd5b8063013cf08b146101ca57806301ffc9a7146101fd57806302a251a314610220575b5f80fd5b6101dd6101d836600461149f565b61049b565b6040516101f49b9a9998979695949392919061152d565b60405180910390f35b61021061020b3660046115b7565b61061d565b60405190151581526020016101f4565b61022960035481565b6040519081526020016101f4565b6102297fd8aa0f3194971a2a116679f7c2090f6939c8d4e01a2a8d7e41d55e5351469e6381565b61027161026c3660046115e5565b610653565b005b61022961028136600461149f565b5f9081526020819052604090206001015490565b6102716102a3366004611632565b610920565b6102716102b6366004611632565b61094a565b61022960025481565b6102716102d236600461149f565b610982565b6102106102e5366004611632565b600b60209081525f928352604080842090915290825290205460ff1681565b61022960055481565b6102297fa49807205ce4d355092ef5a8a18f56e8913cf4a201fbe287825b095693c2177581565b61021061034236600461149f565b610abd565b61035a61035536600461149f565b610b7a565b60408051931515845291151560208401521515908201526060016101f4565b610210610387366004611632565b610be7565b6102295f81565b6102296103a13660046116e3565b610c0f565b61022960045481565b6007546103c2906001600160a01b031681565b6040516001600160a01b0390911681526020016101f4565b6102296103e8366004611794565b600c6020525f908152604090205481565b6008546103c2906001600160a01b031681565b61041f61041a36600461149f565b610e33565b6040516101f49897969594939291906117ad565b610271610441366004611632565b610f33565b610271610454366004611804565b610f57565b61022960095481565b61027161047036600461182c565b61104e565b6006546103c2906001600160a01b031681565b61027161049636600461149f565b6110de565b600a6020525f90815260409020805481906104b59061185b565b80601f01602080910402602001604051908101604052809291908181526020018280546104e19061185b565b801561052c5780601f106105035761010080835404028352916020019161052c565b820191905f5260205f20905b81548152906001019060200180831161050f57829003601f168201915b50505060018401546002850154600386015460048701546005880154600689015460078a018054999a6001600160a01b03909716999598509396509194909360ff808416946101008504821694620100009004909116929161058d9061185b565b80601f01602080910402602001604051908101604052809291908181526020018280546105b99061185b565b80156106045780601f106105db57610100808354040283529160200191610604565b820191905f5260205f20905b8154815290600101906020018083116105e757829003601f168201915b505050600890930154919250506001600160a01b03168b565b5f6001600160e01b03198216637965db0b60e01b148061064d57506301ffc9a760e01b6001600160e01b03198316145b92915050565b61065b61133a565b5f828152600a6020526040902060048101544210156106b65760405162461bcd60e51b8152602060048201526012602482015271159bdd1a5b99c81b9bdd081cdd185c9d195960721b60448201526064015b60405180910390fd5b42816005015410156106f95760405162461bcd60e51b815260206004820152600c60248201526b159bdd1a5b99c8195b99195960a21b60448201526064016106ad565b600681015460ff161561071e5760405162461bcd60e51b81526004016106ad90611893565b6006810154610100900460ff161561076c5760405162461bcd60e51b8152602060048201526011602482015270141c9bdc1bdcd85b0818d85b98d95b1959607a1b60448201526064016106ad565b5f838152600b6020908152604080832033845290915290205460ff16156107c55760405162461bcd60e51b815260206004820152600d60248201526c105b1c9958591e481d9bdd1959609a1b60448201526064016106ad565b6006546040516370a0823160e01b81523360048201525f916001600160a01b0316906370a0823190602401602060405180830381865afa15801561080b573d5f803e3d5ffd5b505050506040513d601f19601f8201168201806040525081019061082f91906118bd565b90505f81116108725760405162461bcd60e51b815260206004820152600f60248201526e2737903b37ba34b733903837bbb2b960891b60448201526064016106ad565b5f848152600b602090815260408083203384529091529020805460ff1916600117905582156108b95780826002015f8282546108ae91906118e8565b909155506108d29050565b80826003015f8282546108cc91906118e8565b90915550505b60408051841515815260208101839052339186917fcbdf6214089cba887ecbf35a0b6a734589959c9763342c756bb2a80ca2bc9f6e910160405180910390a3505061091c60018055565b5050565b5f8281526020819052604090206001015461093a81611364565b610944838361136e565b50505050565b6001600160a01b03811633146109735760405163334bd91960e11b815260040160405180910390fd5b61097d82826113fd565b505050565b5f818152600a6020526040902060018101546001600160a01b03163314806109cf57506109cf7fa49807205ce4d355092ef5a8a18f56e8913cf4a201fbe287825b095693c2177533610be7565b610a0c5760405162461bcd60e51b815260206004820152600e60248201526d139bdd08185d5d1a1bdc9a5e995960921b60448201526064016106ad565b600681015460ff1615610a315760405162461bcd60e51b81526004016106ad90611893565b6006810154610100900460ff1615610a7e5760405162461bcd60e51b815260206004820152601060248201526f105b1c9958591e4818d85b98d95b195960821b60448201526064016106ad565b60068101805461ff00191661010017905560405182907f789cf55be980739dad1d0699b93b58e806b51c9d96619bfa8fe0a28abaa7b30c905f90a25050565b5f818152600a6020908152604080832060065482516318160ddd60e01b81529251919385936001600160a01b03909216926318160ddd9260048082019392918290030181865afa158015610b13573d5f803e3d5ffd5b505050506040513d601f19601f82011682018060405250810190610b3791906118bd565b90505f606460055483610b4a91906118fb565b610b549190611912565b905082600301548360020154118015610b71575080836002015410155b95945050505050565b5f818152600a602052604081206004810154829182914210801590610ba3575080600501544211155b8015610bb45750600681015460ff16155b8015610bca57506006810154610100900460ff16155b9350806005015442119250610bde85610abd565b93959294505050565b5f918252602082815260408084206001600160a01b0393909316845291905290205460ff1690565b5f610c1861133a565b600480546006546040516370a0823160e01b8152339381019390935290916001600160a01b03909116906370a0823190602401602060405180830381865afa158015610c66573d5f803e3d5ffd5b505050506040513d601f19601f82011682018060405250810190610c8a91906118bd565b1015610cd85760405162461bcd60e51b815260206004820152601860248201527f42656c6f772070726f706f73616c207468726573686f6c64000000000000000060448201526064016106ad565b5f855111610d1c5760405162461bcd60e51b815260206004820152601160248201527022b6b83a3c903232b9b1b934b83a34b7b760791b60448201526064016106ad565b5f60095f8154610d2b90611931565b91829055505f818152600a6020526040902090915080610d4b8882611996565b506001810180546001600160a01b03191633179055600254610d6d90426118e8565b60048201819055600354610d80916118e8565b600582015560068101805487919062ff0000191662010000836003811115610daa57610daa6114f9565b02179055506008810180546001600160a01b0319166001600160a01b03871617905560078101610dda8582611996565b50336001600160a01b0316827fe0269f7953e70365e80e614e4efe7d4bede59b7f5ad80982ea4064c97ee6f4ef8989604051610e17929190611a52565b60405180910390a3509050610e2b60018055565b949350505050565b5f818152600a60205260408120600181015460028201546003830154600484015460058501546006860154865460609897889788978897889788978897959687966001600160a01b039096169560ff8082169261010090920416908890610e999061185b565b80601f0160208091040260200160405190810160405280929190818152602001828054610ec59061185b565b8015610f105780601f10610ee757610100808354040283529160200191610f10565b820191905f5260205f20905b815481529060010190602001808311610ef357829003601f168201915b505050505097509850985098509850985098509850985050919395975091939597565b5f82815260208190526040902060010154610f4d81611364565b61094483836113fd565b7fa49807205ce4d355092ef5a8a18f56e8913cf4a201fbe287825b095693c21775610f8181611364565b6001600160a01b038316610fd05760405162461bcd60e51b8152602060048201526016602482015275496e76616c6964206f7261636c65206164647265737360501b60448201526064016106ad565b6001600160a01b03821661101f5760405162461bcd60e51b8152602060048201526016602482015275496e76616c696420766f74696e67206164647265737360501b60448201526064016106ad565b50600780546001600160a01b039384166001600160a01b03199182161790915560088054929093169116179055565b33301461109d5760405162461bcd60e51b815260206004820152601760248201527f4f6e6c79207468726f75676820676f7665726e616e636500000000000000000060448201526064016106ad565b83156110a95760028490555b82156110b55760038390555b81156110c15760048290555b5f811180156110d1575060648111155b1561094457600555505050565b6110e661133a565b7fd8aa0f3194971a2a116679f7c2090f6939c8d4e01a2a8d7e41d55e5351469e6361111081611364565b5f828152600a60205260409020600581015442116111635760405162461bcd60e51b815260206004820152601060248201526f159bdd1a5b99c81b9bdd08195b99195960821b60448201526064016106ad565b600681015460ff16156111885760405162461bcd60e51b81526004016106ad90611893565b6006810154610100900460ff16156111d65760405162461bcd60e51b8152602060048201526011602482015270141c9bdc1bdcd85b0818d85b98d95b1959607a1b60448201526064016106ad565b6111df83610abd565b61121d5760405162461bcd60e51b815260206004820152600f60248201526e141c9bdc1bdcd85b0819985a5b1959608a1b60448201526064016106ad565b60068101805460ff1916600117905560088101546001600160a01b03161580159061125757505f8160070180546112539061185b565b9050115b156113025760088101546040515f916001600160a01b03169061127e906007850190611a73565b5f604051808303815f865af19150503d805f81146112b7576040519150601f19603f3d011682016040523d82523d5f602084013e6112bc565b606091505b50509050806113005760405162461bcd60e51b815260206004820152601060248201526f115e1958dd5d1a5bdb8819985a5b195960821b60448201526064016106ad565b505b60405183907f712ae1383f79ac853f8d882153778e0260ef8f03b504e2866e0593e04d2b291f905f90a2505061133760018055565b50565b60026001540361135d57604051633ee5aeb560e01b815260040160405180910390fd5b6002600155565b6113378133611466565b5f6113798383610be7565b6113f6575f838152602081815260408083206001600160a01b03861684529091529020805460ff191660011790556113ae3390565b6001600160a01b0316826001600160a01b0316847f2f8788117e7eff1d82e926ec794901d17c78024a50270940304540a733656f0d60405160405180910390a450600161064d565b505f61064d565b5f6114088383610be7565b156113f6575f838152602081815260408083206001600160a01b0386168085529252808320805460ff1916905551339286917ff6391f5c32d9c69d2a47ea670b442974b53935d1edc7fd64eb21e047a839171b9190a450600161064d565b6114708282610be7565b61091c5760405163e2517d3f60e01b81526001600160a01b0382166004820152602481018390526044016106ad565b5f602082840312156114af575f80fd5b5035919050565b5f81518084525f5b818110156114da576020818501810151868301820152016114be565b505f602082860101526020601f19601f83011685010191505092915050565b634e487b7160e01b5f52602160045260245ffd5b6004811061152957634e487b7160e01b5f52602160045260245ffd5b9052565b5f6101608083526115408184018f6114b6565b905060018060a01b03808e1660208501528c60408501528b60608501528a60808501528960a085015288151560c085015287151560e085015261158761010085018861150d565b83820361012085015261159a82876114b6565b925080851661014085015250509c9b505050505050505050505050565b5f602082840312156115c7575f80fd5b81356001600160e01b0319811681146115de575f80fd5b9392505050565b5f80604083850312156115f6575f80fd5b823591506020830135801515811461160c575f80fd5b809150509250929050565b80356001600160a01b038116811461162d575f80fd5b919050565b5f8060408385031215611643575f80fd5b8235915061165360208401611617565b90509250929050565b634e487b7160e01b5f52604160045260245ffd5b5f67ffffffffffffffff8084111561168a5761168a61165c565b604051601f8501601f19908116603f011681019082821181831017156116b2576116b261165c565b816040528093508581528686860111156116ca575f80fd5b858560208301375f602087830101525050509392505050565b5f805f80608085870312156116f6575f80fd5b843567ffffffffffffffff8082111561170d575f80fd5b818701915087601f830112611720575f80fd5b61172f88833560208501611670565b95506020870135915060048210611744575f80fd5b81945061175360408801611617565b93506060870135915080821115611768575f80fd5b508501601f81018713611779575f80fd5b61178887823560208401611670565b91505092959194509250565b5f602082840312156117a4575f80fd5b6115de82611617565b5f6101008083526117c08184018c6114b6565b6001600160a01b039a909a166020840152505060408101969096526060860194909452608085019290925260a0840152151560c0830152151560e090910152919050565b5f8060408385031215611815575f80fd5b61181e83611617565b915061165360208401611617565b5f805f806080858703121561183f575f80fd5b5050823594602084013594506040840135936060013592509050565b600181811c9082168061186f57607f821691505b60208210810361188d57634e487b7160e01b5f52602260045260245ffd5b50919050565b60208082526010908201526f105b1c9958591e48195e1958dd5d195960821b604082015260600190565b5f602082840312156118cd575f80fd5b5051919050565b634e487b7160e01b5f52601160045260245ffd5b8082018082111561064d5761064d6118d4565b808202811582820484141761064d5761064d6118d4565b5f8261192c57634e487b7160e01b5f52601260045260245ffd5b500490565b5f60018201611942576119426118d4565b5060010190565b601f82111561097d575f81815260208120601f850160051c8101602086101561196f5750805b601f850160051c820191505b8181101561198e5782815560010161197b565b505050505050565b815167ffffffffffffffff8111156119b0576119b061165c565b6119c4816119be845461185b565b84611949565b602080601f8311600181146119f7575f84156119e05750858301515b5f19600386901b1c1916600185901b17855561198e565b5f85815260208120601f198616915b82811015611a2557888601518255948401946001909101908401611a06565b5085821015611a4257878501515f19600388901b60f8161c191681555b5050505050600190811b01905550565b604081525f611a6460408301856114b6565b90506115de602083018461150d565b5f808354611a808161185b565b60018281168015611a985760018114611aad57611ad9565b60ff1984168752821515830287019450611ad9565b875f526020805f205f5b85811015611ad05781548a820152908401908201611ab7565b50505082870194505b5092969550505050505056fea26469706673582212202d0228c019a70ada31bfaf6d14b1c23caaaa8575a2de473ec960892ff24a91cc64736f6c63430008140033",
  "linkReferences": {},
  "deployedLinkReferences": {},
  "immutableReferences": {},
  "inputSourceName": "project/contracts/GovernanceContract.sol",
  "buildInfoId": "solc-0_8_20-01cdc17923cb14ed6a8aac0d343916ef233f756c"
}