{
  "_format": "hh3-artifact-1",
  "contractName": "VotingContract",
  "sourceName": "contracts/VotingContract.sol",
  "abi": [
    {
      "inputs": [
        {
          "internalType": "address",
          "name": "_tokenContract",
          "type": "address"
        }
      ],
      "stateMutability": "nonpayable",
      "type": "constructor"
    },
    {
      "inputs": [],
      "name": "AccessControlBadConfirmation",
      "type": "error"
    },
    {
      "inputs": [
        {
          "internalType": "address",
          "name": "account",
          "type": "address"
        },
        {
          "internalType": "bytes32",
          "name": "neededRole",
          "type": "bytes32"
        }
      ],
      "name": "AccessControlUnauthorizedAccount",
      "type": "error"
    },
    {
      "inputs": [],
      "name": "ReentrancyGuardReentrantCall",
      "type": "error"
    },
    {
      "anonymous": false,
      "inputs": [
        {
          "indexed": true,
          "internalType": "bytes32",
          "name": "questionId",
          "type": "bytes32"
        },
        {
          "indexed": true,
          "internalType": "address",
          "name": "voter",
          "type": "address"
        },
        {
          "indexed": false,
          "internalType": "uint256",
          "name": "amount",
          "type": "uint256"
        }
      ],
      "name": "RewardDistributed",
      "type": "event"
    },
    {
      "anonymous": false,
      "inputs": [
        {
          "indexed": true,
          "internalType": "bytes32",
          "name": "role",
          "type": "bytes32"
        },
        {
          "indexed": true,
          "internalType": "bytes32",
          "name": "previousAdminRole",
          "type": "bytes32"
        },
        {
          "indexed": true,
          "internalType": "bytes32",
          "name": "newAdminRole",
          "type": "bytes32"
        }
      ],
      "name": "RoleAdminChanged",
      "type": "event"
    },
    {
      "anonymous": false,
      "inputs": [
        {
          "indexed": true,
          "internalType": "bytes32",
          "name": "role",
          "type": "bytes32"
        },
        {
          "indexed": true,
          "internalType": "address",
          "name": "account",
          "type": "address"
        },
        {
          "indexed": true,
          "internalType": "address",
          "name": "sender",
          "type": "address"
        }
      ],
      "name": "RoleGranted",
      "type": "event"
    },
    {
      "anonymous": false,
      "inputs": [
        {
          "indexed": true,
          "internalType": "bytes32",
          "name": "role",
          "type": "bytes32"
        },
        {
          "indexed": true,
          "internalType": "address",
          "name": "account",
          "type": "address"
        },
        {
          "indexed": true,
          "internalType": "address",
          "name": "sender",
          "type": "address"
        }
      ],
      "name": "RoleRevoked",
      "type": "event"
    },
    {
      "anonymous": false,
      "inputs": [
        {
          "indexed": true,
          "internalType": "bytes32",
          "name": "questionId",
          "type": "bytes32"
        },
        {
          "indexed": true,
          "internalType": "address",
          "name": "voter",
          "type": "address"
        },
        {
          "indexed": false,
          "internalType": "bool",
          "name": "approved",
          "type": "bool"
        },
        {
          "indexed": false,
          "internalType": "uint256",
          "name": "stake",
          "type": "uint256"
        }
      ],
      "name": "VoteCast",
      "type": "event"
    },
    {
      "anonymous": false,
      "inputs": [
        {
          "indexed": true,
          "internalType": "bytes32",
          "name": "questionId",
          "type": "bytes32"
        },
        {
          "indexed": true,
          "internalType": "address",
          "name": "voter",
          "type": "address"
        },
        {
          "indexed": false,
          "internalType": "uint256",
          "name": "amount",
          "type": "uint256"
        }
      ],
      "name": "VoterSlashed",
      "type": "event"
    },
    {
      "anonymous": false,
      "inputs": [
        {
          "indexed": true,
          "internalType": "bytes32",
          "name": "questionId",
          "type": "bytes32"
        },
        {
          "indexed": false,
          "internalType": "bool",
          "name": "approved",
          "type": "bool"
        },
        {
          "indexed": false,
          "internalType": "uint256",
          "name": "totalVotes",
          "type": "uint256"
        }
      ],
      "name": "VotingFinalized",
      "type": "event"
    },
    {
      "anonymous": false,
      "inputs": [
        {
          "indexed": true,
          "internalType": "bytes32",
          "name": "questionId",
          "type": "bytes32"
        },
        {
          "indexed": false,
          "internalType": "uint256",
          "name": "endTime",
          "type": "uint256"
        }
      ],
      "name": "VotingStarted",
      "type": "event"
    },
    {
      "inputs": [],
      "name": "APPROVAL_THRESHOLD",
      "outputs": [
        {
          "internalType": "uint256",
          "name": "",
          "type": "uint256"
        }
      ],
      "stateMutability": "view",
      "type": "function"
    },
    {
      "inputs": [],
      "name": "DEFAULT_ADMIN_ROLE",
      "outputs": [
        {
          "internalType": "bytes32",
          "name": "",
          "type": "bytes32"
        }
      ],
      "stateMutability": "view",
      "type": "function"
    },
    {
      "inputs": [],
      "name": "ORACLE_ROLE",
      "outputs": [
        {
          "internalType": "bytes32",
          "name": "",
          "type": "bytes32"
        }
      ],
      "stateMutability": "view",
      "type": "function"
    },
    {
      "inputs": [],
      "name": "QUORUM_PERCENTAGE",
      "outputs": [
        {
          "internalType": "uint256",
          "name": "",
          "type": "uint256"
        }
      ],
      "stateMutability": "view",
      "type": "function"
    },
    {
      "inputs": [],
      "name": "REWARD_PERCENTAGE",
      "outputs": [
        {
          "internalType": "uint256",
          "name": "",
          "type": "uint256"
        }
      ],
      "stateMutability": "view",
      "type": "function"
    },
    {
      "inputs": [],
      "name": "SLASH_PERCENTAGE",
      "outputs": [
        {
          "internalType": "uint256",
          "name": "",
          "type": "uint256"
        }
      ],
      "stateMutability": "view",
      "type": "function"
    },
    {
      "inputs": [
        {
          "internalType": "bytes32",
          "name": "questionId",
          "type": "bytes32"
        },
        {
          "internalType": "bool",
          "name": "approved",
          "type": "bool"
        }
      ],
      "name": "castVote",
      "outputs": [],
      "stateMutability": "nonpayable",
      "type": "function"
    },
    {
      "inputs": [
        {
          "internalType": "bytes32",
          "name": "questionId",
          "type": "bytes32"
        },
        {
          "internalType": "uint256",
          "name": "totalFee",
          "type": "uint256"
        }
      ],
      "name": "distributeRewards",
      "outputs": [],
      "stateMutability": "nonpayable",
      "type": "function"
    },
    {
      "inputs": [
        {
          "internalType": "uint256",
          "name": "roundId",
          "type": "uint256"
        },
        {
          "internalType": "uint256",
          "name": "totalReward",
          "type": "uint256"
        }
      ],
      "name": "distributeRewards",
      "outputs": [],
      "stateMutability": "nonpayable",
      "type": "function"
    },
    {
      "inputs": [
        {
          "internalType": "bytes32",
          "name": "role",
          "type": "bytes32"
        }
      ],
      "name": "getRoleAdmin",
      "outputs": [
        {
          "internalType": "bytes32",
          "name": "",
          "type": "bytes32"
        }
      ],
      "stateMutability": "view",
      "type": "function"
    },
    {
      "inputs": [
        {
          "internalType": "bytes32",
          "name": "questionId",
          "type": "bytes32"
        },
        {
          "internalType": "address",
          "name": "voter",
          "type": "address"
        }
      ],
      "name": "getVote",
      "outputs": [
        {
          "internalType": "bool",
          "name": "approved",
          "type": "bool"
        },
        {
          "internalType": "uint256",
          "name": "stake",
          "type": "uint256"
        },
        {
          "internalType": "uint256",
          "name": "timestamp",
          "type": "uint256"
        },
        {
          "internalType": "bool",
          "name": "claimed",
          "type": "bool"
        }
      ],
      "stateMutability": "view",
      "type": "function"
    },
    {
      "inputs": [
        {
          "internalType": "bytes32",
          "name": "questionId",
          "type": "bytes32"
        }
      ],
      "name": "getVoters",
      "outputs": [
        {
          "internalType": "address[]",
          "name": "",
          "type": "address[]"
        }
      ],
      "stateMutability": "view",
      "type": "function"
    },
    {
      "inputs": [
        {
          "internalType": "bytes32",
          "name": "questionId",
          "type": "bytes32"
        }
      ],
      "name": "getVotingResults",
      "outputs": [
        {
          "internalType": "bool",
          "name": "approved",
          "type": "bool"
        },
        {
          "internalType": "uint256",
          "name": "voteCount",
          "type": "uint256"
        }
      ],
      "stateMutability": "view",
      "type": "function"
    },
    {
      "inputs": [
        {
          "internalType": "bytes32",
          "name": "questionId",
          "type": "bytes32"
        }
      ],
      "name": "getVotingRoundInfo",
      "outputs": [
        {
          "internalType": "uint256",
          "name": "startTime",
          "type": "uint256"
        },
        {
          "internalType": "uint256",
          "name": "endTime",
          "type": "uint256"
        },
        {
          "internalType": "uint256",
          "name": "totalVotesFor",
          "type": "uint256"
        },
        {
          "internalType": "uint256",
          "name": "totalVotesAgainst",
          "type": "uint256"
        },
        {
          "internalType": "uint256",
          "name": "totalStake",
          "type": "uint256"
        },
        {
          "internalType": "bool",
          "name": "finalized",
          "type": "bool"
        }
      ],
      "stateMutability": "view",
      "type": "function"
    },
    {
      "inputs": [
        {
          "internalType": "bytes32",
          "name": "role",
          "type": "bytes32"
        },
        {
          "internalType": "address",
          "name": "account",
          "type": "address"
        }
      ],
      "name": "grantRole",
      "outputs": [],
      "stateMutability": "nonpayable",
      "type": "function"
    },
    {
      "inputs": [
        {
          "internalType": "bytes32",
          "name": "role",
          "type": "bytes32"
        },
        {
          "internalType": "address",
          "name": "account",
          "type": "address"
        }
      ],
      "name": "hasRole",
      "outputs": [
        {
          "internalType": "bool",
          "name": "",
          "type": "bool"
        }
      ],
      "stateMutability": "view",
      "type": "function"
    },
    {
      "inputs": [
        {
          "internalType": "bytes32",
          "name": "questionId",
          "type": "bytes32"
        },
        {
          "internalType": "address",
          "name": "voter",
          "type": "address"
        }
      ],
      "name": "hasVoted",
      "outputs": [
        {
          "internalType": "bool",
          "name": "",
          "type": "bool"
        }
      ],
      "stateMutability": "view",
      "type": "function"
    },
    {
      "inputs": [
        {
          "internalType": "bytes32",
          "name": "questionId",
          "type": "bytes32"
        }
      ],
      "name": "hasVotingEnded",
      "outputs": [
        {
          "internalType": "bool",
          "name": "",
          "type": "bool"
        }
      ],
      "stateMutability": "view",
      "type": "function"
    },
    {
      "inputs": [],
      "name": "nextRoundId",
      "outputs": [
        {
          "internalType": "uint256",
          "name": "",
          "type": "uint256"
        }
      ],
      "stateMutability": "view",
      "type": "function"
    },
    {
      "inputs": [],
      "name": "oracleContract",
      "outputs": [
        {
          "internalType": "address",
          "name": "",
          "type": "address"
        }
      ],
      "stateMutability": "view",
      "type": "function"
    },
    {
      "inputs": [
        {
          "internalType": "bytes32",
          "name": "role",
          "type": "bytes32"
        },
        {
          "internalType": "address",
          "name": "callerConfirmation",
          "type": "address"
        }
      ],
      "name": "renounceRole",
      "outputs": [],
      "stateMutability": "nonpayable",
      "type": "function"
    },
    {
      "inputs": [
        {
          "internalType": "bytes32",
          "name": "role",
          "type": "bytes32"
        },
        {
          "internalType": "address",
          "name": "account",
          "type": "address"
        }
      ],
      "name": "revokeRole",
      "outputs": [],
      "stateMutability": "nonpayable",
      "type": "function"
    },
    {
      "inputs": [
        {
          "internalType": "uint256",
          "name": "",
          "type": "uint256"
        }
      ],
      "name": "roundIdToQuestionId",
      "outputs": [
        {
          "internalType": "bytes32",
          "name": "",
          "type": "bytes32"
        }
      ],
      "stateMutability": "view",
      "type": "function"
    },
    {
      "inputs": [
        {
          "internalType": "address",
          "name": "_oracleContract",
          "type": "address"
        }
      ],
      "name": "setOracleContract",
      "outputs": [],
      "stateMutability": "nonpayable",
      "type": "function"
    },
    {
      "inputs": [
        {
          "internalType": "address",
          "name": "_tokenContract",
          "type": "address"
        }
      ],
      "name": "setTokenContract",
      "outputs": [],
      "stateMutability": "nonpayable",
      "type": "function"
    },
    {
      "inputs": [
        {
          "internalType": "bytes32",
          "name": "questionId",
          "type": "bytes32"
        },
        {
          "internalType": "address",
          "name": "asker",
          "type": "address"
        },
        {
          "internalType": "uint256",
          "name": "fee",
          "type": "uint256"
        }
      ],
      "name": "startVoting",
      "outputs": [
        {
          "internalType": "uint256",
          "name": "",
          "type": "uint256"
        }
      ],
      "stateMutability": "nonpayable",
      "type": "function"
    },
    {
      "inputs": [
        {
          "internalType": "bytes4",
          "name": "interfaceId",
          "type": "bytes4"
        }
      ],
      "name": "supportsInterface",
      "outputs": [
        {
          "internalType": "bool",
          "name": "",
          "type": "bool"
        }
      ],
      "stateMutability": "view",
      "type": "function"
    },
    {
      "inputs": [],
      "name": "tokenContract",
      "outputs": [
        {
          "internalType": "address",
          "name": "",
          "type": "address"
        }
      ],
      "stateMutability": "view",
      "type": "function"
    },
    {
      "inputs": [
        {
          "internalType": "bytes32",
          "name": "",
          "type": "bytes32"
        }
      ],
      "name": "votingRounds",
      "outputs": [
        {
          "internalType": "bytes32",
          "name": "questionId",
          "type": "bytes32"
        },
        {
          "internalType": "uint256",
          "name": "startTime",
          "type": "uint256"
        },
        {
          "internalType": "uint256",
          "name": "endTime",
          "type": "uint256"
        },
        {
          "internalType": "uint256",
          "name": "totalVotesFor",
          "type": "uint256"
        },
        {
          "internalType": "uint256",
          "name": "totalVotesAgainst",
          "type": "uint256"
        },
        {
          "internalType": "uint256",
          "name": "totalStake",
          "type": "uint256"
        },
        {
          "internalType": "bool",
          "name": "finalized",
          "type": "bool"
        }
      ],
      "stateMutability": "view",
      "type": "function"
    },
    {
      "stateMutability": "payable",
      "type": "receive"
    }
  ],
  "bytecode": "0x6080604052600160045534801562000015575f80fd5b5060405162001b9d38038062001b9d83398101604081905262000038916200019f565b600180556001600160a01b038116620000975760405162461bcd60e51b815260206004820152601660248201527f496e76616c696420746f6b656e20636f6e747261637400000000000000000000604482015260640160405180910390fd5b600680546001600160a01b0319166001600160a01b038316179055620000be5f33620000f3565b50620000eb7f68e79a7bf1e0bc45d0a330c573bc367f9cf464fd326078812f301165fbda4ef133620000f3565b5050620001ce565b5f828152602081815260408083206001600160a01b038516845290915281205460ff1662000196575f838152602081815260408083206001600160a01b03861684529091529020805460ff191660011790556200014d3390565b6001600160a01b0316826001600160a01b0316847f2f8788117e7eff1d82e926ec794901d17c78024a50270940304540a733656f0d60405160405180910390a450600162000199565b505f5b92915050565b5f60208284031215620001b0575f80fd5b81516001600160a01b0381168114620001c7575f80fd5b9392505050565b6119c180620001dc5f395ff3fe6080604052600436106101bd575f3560e01c806391d14854116100f2578063bece753211610092578063df6c39fb11610062578063df6c39fb14610699578063ee8a7c15146106b8578063f4ae1123146106cc578063fc72b1ed146106eb575f80fd5b8063bece75321461060a578063d547741f14610629578063d94b646014610648578063db45c6eb1461067a575f80fd5b8063aadc3b72116100cd578063aadc3b7214610501578063b3e7c2bd1461054b578063b431d5ee146105cc578063bbcd5bbe146105eb575f80fd5b806391d14854146104bb5780639f29f135146104da578063a217fddf146104ee575f80fd5b80634002eda61161015d57806355a373d61161013857806355a373d6146103a65780635a757b51146103dd5780638a757eb8146104645780638b4a781c1461048f575f80fd5b80634002eda61461033c578063496ccd9b146103515780634fcf979714610370575f80fd5b8063248a9ca311610198578063248a9ca3146102ba5780632f2ff15d146102e857806336568abe146103095780633ab3429014610328575f80fd5b806301ffc9a7146101c857806307e2cea5146101fc5780630fb208251461022a575f80fd5b366101c457005b5f80fd5b3480156101d3575f80fd5b506101e76101e23660046116ad565b6106ff565b60405190151581526020015b60405180910390f35b348015610207575f80fd5b5061021c5f8051602061196c83398151915281565b6040519081526020016101f3565b348015610235575f80fd5b506102836102443660046116db565b600260208190525f9182526040909120805460018201549282015460038301546004840154600585015460069095015493959492939192909160ff1687565b604080519788526020880196909652948601939093526060850191909152608084015260a0830152151560c082015260e0016101f3565b3480156102c5575f80fd5b5061021c6102d43660046116db565b5f9081526020819052604090206001015490565b3480156102f3575f80fd5b5061030761030236600461170d565b610735565b005b348015610314575f80fd5b5061030761032336600461170d565b61075f565b348015610333575f80fd5b5061021c604281565b348015610347575f80fd5b5061021c60045481565b34801561035c575f80fd5b5061030761036b366004611737565b610797565b34801561037b575f80fd5b5061038f61038a3660046116db565b61082e565b6040805192151583526020830191909152016101f3565b3480156103b1575f80fd5b506006546103c5906001600160a01b031681565b6040516001600160a01b0390911681526020016101f3565b3480156103e8575f80fd5b506104356103f73660046116db565b5f9081526002602081905260409091206001810154918101546003820154600483015460058401546006909401549495929491939092909160ff1690565b6040805196875260208701959095529385019290925260608401526080830152151560a082015260c0016101f3565b34801561046f575f80fd5b5061021c61047e3660046116db565b60036020525f908152604090205481565b34801561049a575f80fd5b506104ae6104a93660046116db565b610964565b6040516101f39190611750565b3480156104c6575f80fd5b506101e76104d536600461170d565b6109d0565b3480156104e5575f80fd5b5061021c601481565b3480156104f9575f80fd5b5061021c5f81565b34801561050c575f80fd5b506101e761051b36600461170d565b5f8281526002602090815260408083206001600160a01b0385168452600701909152902060010154151592915050565b348015610556575f80fd5b506105a861056536600461170d565b5f9182526002602081815260408085206001600160a01b03949094168552600790930190529120805460018201549282015460039092015460ff91821694911690565b604080519415158552602085019390935291830152151560608201526080016101f3565b3480156105d7575f80fd5b5061021c6105e636600461179c565b6109f8565b3480156105f6575f80fd5b50610307610605366004611737565b610aed565b348015610615575f80fd5b506005546103c5906001600160a01b031681565b348015610634575f80fd5b5061030761064336600461170d565b610b69565b348015610653575f80fd5b506101e76106623660046116db565b5f908152600260208190526040909120015442101590565b348015610685575f80fd5b506103076106943660046117ce565b610b8d565b3480156106a4575f80fd5b506103076106b33660046117ce565b611030565b3480156106c3575f80fd5b5061021c602181565b3480156106d7575f80fd5b506103076106e63660046117fb565b61125c565b3480156106f6575f80fd5b5061021c600581565b5f6001600160e01b03198216637965db0b60e01b148061072f57506301ffc9a760e01b6001600160e01b03198316145b92915050565b5f8281526020819052604090206001015461074f81611545565b6107598383611552565b50505050565b6001600160a01b03811633146107885760405163334bd91960e11b815260040160405180910390fd5b61079282826115e1565b505050565b5f6107a181611545565b6001600160a01b0382166107fc5760405162461bcd60e51b815260206004820152601760248201527f496e76616c6964206f7261636c6520636f6e747261637400000000000000000060448201526064015b60405180910390fd5b600580546001600160a01b0319166001600160a01b0384161790556107925f8051602061196c83398151915283611552565b5f8181526002602081905260408220908101548291904210156108865760405162461bcd60e51b815260206004820152601060248201526f159bdd1a5b99c81b9bdd08195b99195960821b60448201526064016107f3565b600654604080516340bd8e6960e11b815290515f926001600160a01b03169163817b1cd29160048083019260209291908290030181865afa1580156108cd573d5f803e3d5ffd5b505050506040513d601f19601f820116820180604052508101906108f19190611829565b90505f602182846005015460646109089190611854565b610912919061186b565b101590508061092b575050600501545f94909350915050565b5f60428460050154856003015460646109449190611854565b61094e919061186b565b6005909501549410159793965092945050505050565b5f818152600260209081526040918290206008018054835181840281018401909452808452606093928301828280156109c457602002820191905f5260205f20905b81546001600160a01b031681526001909101906020018083116109a6575b50505050509050919050565b5f918252602082815260408084206001600160a01b0393909316845291905290205460ff1690565b5f5f8051602061196c833981519152610a1081611545565b5f858152600260205260409020600181015415610a685760405162461bcd60e51b8152602060048201526016602482015275159bdd1a5b99c8185b1c9958591e481cdd185c9d195960521b60448201526064016107f3565b600480545f9182610a788361188a565b909155505f8181526003602052604090208890558783554260018401819055909150610aa790620151806118a2565b6002830181905560405190815287907f9fedf7d6e0028751025b577d2e7fff396b5f12039fca19f4a6820144592003579060200160405180910390a29695505050505050565b5f610af781611545565b6001600160a01b038216610b465760405162461bcd60e51b8152602060048201526016602482015275125b9d985b1a59081d1bdad95b8818dbdb9d1c9858dd60521b60448201526064016107f3565b50600680546001600160a01b0319166001600160a01b0392909216919091179055565b5f82815260208190526040902060010154610b8381611545565b61075983836115e1565b5f8051602061196c833981519152610ba481611545565b610bac61164a565b5f838152600260205260409020600681015460ff1615610c025760405162461bcd60e51b8152602060048201526011602482015270105b1c9958591e48199a5b985b1a5e9959607a1b60448201526064016107f3565b8060020154421015610c495760405162461bcd60e51b815260206004820152601060248201526f159bdd1a5b99c81b9bdd08195b99195960821b60448201526064016107f3565b604051634fcf979760e01b8152600481018590525f903090634fcf9797906024016040805180830381865afa158015610c84573d5f803e3d5ffd5b505050506040513d601f19601f82011682018060405250810190610ca891906118b5565b5090505f6064610cb9600587611854565b610cc3919061186b565b90505f82610cd5578360040154610cdb565b83600301545b9050805f03610d445760068401805460ff19166001179055600584015460405188917f99e4752df6c40491391fdb495892a63097bda61495b6a08321d0df931498e86e91610d33918715158252602082015260400190565b60405180910390a250505050611027565b5f5b6008850154811015610f3c575f856008018281548110610d6857610d686118e1565b5f9182526020808320909101546001600160a01b031680835260078901909152604090912080549192509086151560ff909116151503610e53575f84826001015487610db49190611854565b610dbe919061186b565b90505f81118015610dcf5750804710155b15610e4d576040516001600160a01b0384169082156108fc029083905f818181858888f19350505050158015610e07573d5f803e3d5ffd5b50826001600160a01b03168b7f8fa6abe1348f6561b9a60363efc5793e820b343dce49d00e37d01644d9268a7783604051610e4491815260200190565b60405180910390a35b50610f1b565b5f606460148360010154610e679190611854565b610e71919061186b565b6006546040516302fb4d8560e01b81526001600160a01b038681166004830152602482018490529293509116906302fb4d85906044015f604051808303815f87803b158015610ebe575f80fd5b505af1925050508015610ecf575060015b15610f1957826001600160a01b03168b7fee103335dc200610cb15a6c33fbbe19d6083160bc14ab7ae185b2bd9856f637883604051610f1091815260200190565b60405180910390a35b505b600301805460ff191660011790555080610f348161188a565b915050610d46565b5060068401805460ff19166001179055600584015460405188917f99e4752df6c40491391fdb495892a63097bda61495b6a08321d0df931498e86e91610f8c918715158252602082015260400190565b60405180910390a26005546001600160a01b0316156110225760055460038501546004808701546040516332f2320b60e01b81526001600160a01b03909416936332f2320b93610ff8938d938a9390910193845291151560208401526040830152606082015260800190565b5f604051808303815f87803b15801561100f575f80fd5b505af1925050508015611020575060015b505b505050505b61079260018055565b6005546001600160a01b031633146110815760405162461bcd60e51b815260206004820152601460248201527313db9b1e481bdc9858db194818dbdb9d1c9858dd60621b60448201526064016107f3565b5f828152600360209081526040808320548084526002909252909120600681015460ff166110e75760405162461bcd60e51b8152602060048201526013602482015272149bdd5b99081b9bdd08199a5b985b1a5e9959606a1b60448201526064016107f3565b60048101546003820154115f81611102578260040154611108565b82600301545b9050801580611115575084155b1561112257505050505050565b5f5b6008840154811015611253575f846008018281548110611146576111466118e1565b5f9182526020808320909101546001600160a01b031680835260078801909152604090912080549192509060ff16151585151514801561118b5750600381015460ff16155b1561123e575f8482600101548a6111a29190611854565b6111ac919061186b565b9050801561122d576040516001600160a01b0384169082156108fc029083905f818181858888f193505050501580156111e7573d5f803e3d5ffd5b50826001600160a01b0316887f8fa6abe1348f6561b9a60363efc5793e820b343dce49d00e37d01644d9268a778360405161122491815260200190565b60405180910390a35b5060038101805460ff191660011790555b5050808061124b9061188a565b915050611124565b50505050505050565b61126461164a565b5f82815260026020526040902060018101544210156112ba5760405162461bcd60e51b8152602060048201526012602482015271159bdd1a5b99c81b9bdd081cdd185c9d195960721b60448201526064016107f3565b806002015442106112fc5760405162461bcd60e51b815260206004820152600c60248201526b159bdd1a5b99c8195b99195960a21b60448201526064016107f3565b335f9081526007820160205260409020600101541561134d5760405162461bcd60e51b815260206004820152600d60248201526c105b1c9958591e481d9bdd1959609a1b60448201526064016107f3565b60065460405163c345315360e01b81523360048201525f916001600160a01b03169063c345315390602401608060405180830381865afa158015611393573d5f803e3d5ffd5b505050506040513d601f19601f820116820180604052508101906113b791906118f5565b80519091506114085760405162461bcd60e51b815260206004820152601760248201527f4d7573742068617665207374616b656420746f6b656e7300000000000000000060448201526064016107f3565b60408051608081018252841515815282516020808301918252428385019081525f606085018181523380835260078a0185529682209551865490151560ff19918216178755945160018781019190915592516002870155516003909501805495151595909416949094179092556008860180549283018155835282200180546001600160a01b0319169092179091558151600584018054919290916114ae9084906118a2565b909155505082156114d95780516003830180545f906114ce9084906118a2565b909155506114f49050565b80516004830180545f906114ee9084906118a2565b90915550505b80516040805185151581526020810192909252339186917f9bc1d007e9f894b0900fab4b7e20029267e704c85851e5470c30a1e1b239e090910160405180910390a3505061154160018055565b5050565b61154f8133611674565b50565b5f61155d83836109d0565b6115da575f838152602081815260408083206001600160a01b03861684529091529020805460ff191660011790556115923390565b6001600160a01b0316826001600160a01b0316847f2f8788117e7eff1d82e926ec794901d17c78024a50270940304540a733656f0d60405160405180910390a450600161072f565b505f61072f565b5f6115ec83836109d0565b156115da575f838152602081815260408083206001600160a01b0386168085529252808320805460ff1916905551339286917ff6391f5c32d9c69d2a47ea670b442974b53935d1edc7fd64eb21e047a839171b9190a450600161072f565b60026001540361166d57604051633ee5aeb560e01b815260040160405180910390fd5b6002600155565b61167e82826109d0565b6115415760405163e2517d3f60e01b81526001600160a01b0382166004820152602481018390526044016107f3565b5f602082840312156116bd575f80fd5b81356001600160e01b0319811681146116d4575f80fd5b9392505050565b5f602082840312156116eb575f80fd5b5035919050565b80356001600160a01b0381168114611708575f80fd5b919050565b5f806040838503121561171e575f80fd5b8235915061172e602084016116f2565b90509250929050565b5f60208284031215611747575f80fd5b6116d4826116f2565b602080825282518282018190525f9190848201906040850190845b818110156117905783516001600160a01b03168352928401929184019160010161176b565b50909695505050505050565b5f805f606084860312156117ae575f80fd5b833592506117be602085016116f2565b9150604084013590509250925092565b5f80604083850312156117df575f80fd5b50508035926020909101359150565b801515811461154f575f80fd5b5f806040838503121561180c575f80fd5b82359150602083013561181e816117ee565b809150509250929050565b5f60208284031215611839575f80fd5b5051919050565b634e487b7160e01b5f52601160045260245ffd5b808202811582820484141761072f5761072f611840565b5f8261188557634e487b7160e01b5f52601260045260245ffd5b500490565b5f6001820161189b5761189b611840565b5060010190565b8082018082111561072f5761072f611840565b5f80604083850312156118c6575f80fd5b82516118d1816117ee565b6020939093015192949293505050565b634e487b7160e01b5f52603260045260245ffd5b5f60808284031215611905575f80fd5b6040516080810181811067ffffffffffffffff8211171561193457634e487b7160e01b5f52604160045260245ffd5b8060405250825181526020830151602082015260408301516040820152606083015161195f816117ee565b6060820152939250505056fe68e79a7bf1e0bc45d0a330c573bc367f9cf464fd326078812f301165fbda4ef1a26469706673582212208e0dd18cae8853947fbb2dbc4aa32925b2281013afa764afbd977a90c10736f164736f6c63430008140033",
  "linkReferences": {},
  "deployedLinkReferences": {},
  "immutableReferences": {},
  "inputSourceName": "project/contracts/VotingContract.sol",
  "buildInfoId": "solc-0_8_20-6530c9130c3a1726b4f23162951b9a294fa5aa54"
}